{
  "contractName": "Adoption",
  "abi": [
    {
      "constant": true,
      "inputs": [
        {
          "name": "",
          "type": "uint256"
        }
      ],
      "name": "adopters",
      "outputs": [
        {
          "name": "",
          "type": "address"
        }
      ],
      "payable": false,
      "stateMutability": "view",
      "type": "function"
    },
    {
      "constant": false,
      "inputs": [
        {
          "name": "petId",
          "type": "uint256"
        }
      ],
      "name": "adopt",
      "outputs": [
        {
          "name": "",
          "type": "uint256"
        }
      ],
      "payable": false,
      "stateMutability": "nonpayable",
      "type": "function"
    },
    {
      "constant": true,
      "inputs": [],
      "name": "getAdopters",
      "outputs": [
        {
          "name": "",
          "type": "address[16]"
        }
      ],
      "payable": false,
      "stateMutability": "view",
      "type": "function"
    }
  ],
  "bytecode": "0x608060405234801561001057600080fd5b506102f4806100206000396000f3fe608060405260043610610057576000357c0100000000000000000000000000000000000000000000000000000000900463ffffffff1680633de4eb171461005c57806343ae80d3146100af5780638588b2c51461012a575b600080fd5b34801561006857600080fd5b50610071610179565b6040518082601060200280838360005b8381101561009c578082015181840152602081019050610081565b5050505090500191505060405180910390f35b3480156100bb57600080fd5b506100e8600480360360208110156100d257600080fd5b81019080803590602001909291905050506101fa565b604051808273ffffffffffffffffffffffffffffffffffffffff1673ffffffffffffffffffffffffffffffffffffffff16815260200191505060405180910390f35b34801561013657600080fd5b506101636004803603602081101561014d57600080fd5b810190808035906020019092919050505061022f565b6040518082815260200191505060405180910390f35b6101816102a4565b60006010806020026040519081016040528092919082601080156101f0576020028201915b8160009054906101000a900473ffffffffffffffffffffffffffffffffffffffff1673ffffffffffffffffffffffffffffffffffffffff16815260200190600101908083116101a6575b5050505050905090565b60008160108110151561020957fe5b016000915054906101000a900473ffffffffffffffffffffffffffffffffffffffff1681565b60008082101580156102425750600f8211155b151561024d57600080fd5b3360008360108110151561025d57fe5b0160006101000a81548173ffffffffffffffffffffffffffffffffffffffff021916908373ffffffffffffffffffffffffffffffffffffffff160217905550819050919050565b6102006040519081016040528060109060208202803883398082019150509050509056fea165627a7a723058203a8398bc182cb085ec0701c40065d6018a7b850b286f3067e742222adf9b77710029",
  "source": "pragma solidity ^0.5.0;\n\ncontract Adoption {\n    //This is an array of Ethereum addresses\n\n    address[16] public adopters;\n\n    //1. Adopting a pet\n    function adopt(uint256 petId) public returns (uint256) {\n        require(petId >= 0 && petId <= 15);\n\n        adopters[petId] = msg.sender;\n        return petId;\n    }\n\n    //2. Retrieving the adopters\n    //   memory gives the data location for the variable.\n    function getAdopters() public view returns (address[16] memory) {\n        return adopters;\n    }\n}\n",
  "sourcePath": "/Users/mac/Documents/Development/Blockchain/2021/tracking-system-pet-shop/contracts/adoption.sol",
  "compiler": {
    "name": "solc",
    "version": "0.5.0+commit.1d4f565a.Emscripten.clang"
  },
  "schemaVersion": "3.0.9",
  "updatedAt": "2021-05-09T21:16:51.349Z",
  "devdoc": {
    "methods": {}
  },
  "userdoc": {
    "methods": {}
  }
}